:0300000002088F64
:0C088F00787FE4F6D8FD7581070208367A
:0C089B0054454D50203D203330204300D8
:10080000E4FFFEE4FDFC0DBD00010CBC04F8BDFBE3
:0C081000F50FBF00010EBE01EABF2CE78F
:01081C0022B9
:0E0873008FA0C2B0C2B1D2B2120800C2B2222F
:0E0881008FA0D2B0C2B1D2B2120800C2B22211
:1008600012081DFF600C120881740129F9E43AFA9C
:0308700080EE22F5
:10084C007F381208737F0C1208737F011208737FB4
:04085C00800208739B
:1008360012084C7F801208737BFF7A08799B120896
:060846006012080080EDC5
:10081D00BB010689828A83E0225002E722BBFE02D9
:09082D00E32289828A83E493220C
:00000001FF
